{
  "contractName": "ArtistFactory",
  "abi": [
    {
      "constant": true,
      "inputs": [],
      "name": "owner",
      "outputs": [
        {
          "name": "",
          "type": "address"
        }
      ],
      "payable": false,
      "stateMutability": "view",
      "type": "function"
    },
    {
      "constant": true,
      "inputs": [],
      "name": "artistCount",
      "outputs": [
        {
          "name": "",
          "type": "uint256"
        }
      ],
      "payable": false,
      "stateMutability": "view",
      "type": "function"
    },
    {
      "constant": true,
      "inputs": [
        {
          "name": "",
          "type": "uint256"
        }
      ],
      "name": "artists",
      "outputs": [
        {
          "name": "",
          "type": "address"
        }
      ],
      "payable": false,
      "stateMutability": "view",
      "type": "function"
    },
    {
      "inputs": [],
      "payable": false,
      "stateMutability": "nonpayable",
      "type": "constructor"
    },
    {
      "anonymous": false,
      "inputs": [
        {
          "indexed": false,
          "name": "newArtistId",
          "type": "uint256"
        },
        {
          "indexed": false,
          "name": "name",
          "type": "string"
        },
        {
          "indexed": false,
          "name": "symbol",
          "type": "string"
        }
      ],
      "name": "LogArtistAdded",
      "type": "event"
    },
    {
      "constant": false,
      "inputs": [
        {
          "name": "_name",
          "type": "string"
        },
        {
          "name": "_symbol",
          "type": "string"
        },
        {
          "name": "_genre",
          "type": "string"
        },
        {
          "name": "_bio",
          "type": "string"
        },
        {
          "name": "_location",
          "type": "string"
        },
        {
          "name": "_url",
          "type": "string"
        }
      ],
      "name": "addArtist",
      "outputs": [
        {
          "name": "",
          "type": "uint256"
        }
      ],
      "payable": false,
      "stateMutability": "nonpayable",
      "type": "function"
    },
    {
      "constant": true,
      "inputs": [
        {
          "name": "artistId",
          "type": "uint256"
        }
      ],
      "name": "getArtist",
      "outputs": [
        {
          "name": "",
          "type": "address"
        }
      ],
      "payable": false,
      "stateMutability": "view",
      "type": "function"
    },
    {
      "constant": true,
      "inputs": [
        {
          "name": "artistId",
          "type": "uint256"
        }
      ],
      "name": "getArtistName",
      "outputs": [
        {
          "name": "",
          "type": "string"
        }
      ],
      "payable": false,
      "stateMutability": "view",
      "type": "function"
    },
    {
      "constant": true,
      "inputs": [
        {
          "name": "artistId",
          "type": "uint256"
        }
      ],
      "name": "getArtistImage",
      "outputs": [
        {
          "name": "",
          "type": "string"
        }
      ],
      "payable": false,
      "stateMutability": "view",
      "type": "function"
    }
  ],
  "bytecode": "0x608060405234801561001057600080fd5b50600080546001600160a01b03191633178155600155615773806100356000396000f3fe60806040523480156200001157600080fd5b5060043610620000885760003560e01c80638da5cb5b11620000635780638da5cb5b14620001815780639f345554146200018b578063be53048214620004ef578063cd7e10c114620004f95762000088565b806310b30f7b146200008d57806311b3c7301462000125578063811dd0e21462000145575b600080fd5b620000ad60048036036020811015620000a557600080fd5b503562000519565b6040805160208082528351818301528351919283929083019185019080838360005b83811015620000e9578181015183820152602001620000cf565b50505050905090810190601f168015620001175780820380516001836020036101000a031916815260200191505b509250505060405180910390f35b620000ad600480360360208110156200013d57600080fd5b503562000602565b62000165600480360360208110156200015d57600080fd5b503562000659565b604080516001600160a01b039092168252519081900360200190f35b6200016562000674565b620004dd600480360360c0811015620001a357600080fd5b810190602081018135600160201b811115620001be57600080fd5b820183602082011115620001d157600080fd5b803590602001918460018302840111600160201b83111715620001f357600080fd5b91908080601f0160208091040260200160405190810160405280939291908181526020018383808284376000920191909152509295949360208101935035915050600160201b8111156200024657600080fd5b8201836020820111156200025957600080fd5b803590602001918460018302840111600160201b831117156200027b57600080fd5b91908080601f0160208091040260200160405190810160405280939291908181526020018383808284376000920191909152509295949360208101935035915050600160201b811115620002ce57600080fd5b820183602082011115620002e157600080fd5b803590602001918460018302840111600160201b831117156200030357600080fd5b91908080601f0160208091040260200160405190810160405280939291908181526020018383808284376000920191909152509295949360208101935035915050600160201b8111156200035657600080fd5b8201836020820111156200036957600080fd5b803590602001918460018302840111600160201b831117156200038b57600080fd5b91908080601f0160208091040260200160405190810160405280939291908181526020018383808284376000920191909152509295949360208101935035915050600160201b811115620003de57600080fd5b820183602082011115620003f157600080fd5b803590602001918460018302840111600160201b831117156200041357600080fd5b91908080601f0160208091040260200160405190810160405280939291908181526020018383808284376000920191909152509295949360208101935035915050600160201b8111156200046657600080fd5b8201836020820111156200047957600080fd5b803590602001918460018302840111600160201b831117156200049b57600080fd5b91908080601f01602080910402602001604051908101604052809392919081815260200183838082843760009201919091525092955062000683945050505050565b60408051918252519081900360200190f35b620004dd62000b40565b62000165600480360360208110156200051157600080fd5b503562000b46565b600081815260036020526040808220548151600160e71b62a2c0bb02815291516060936001600160a01b0390921692849284926351605d80926004808201939291829003018186803b1580156200056f57600080fd5b505afa15801562000584573d6000803e3d6000fd5b505050506040513d6000823e601f3d908101601f191682016040526020811015620005ae57600080fd5b810190808051600160201b811115620005c657600080fd5b82016020810184811115620005da57600080fd5b8151600160201b811182820187101715620005f457600080fd5b509098975050505050505050565b600081815260036020526040808220548151600160e01b6306fdde0302815291516060936001600160a01b0390921692849284926306fdde03926004808201939291829003018186803b1580156200056f57600080fd5b6000908152600260205260409020546001600160a01b031690565b6000546001600160a01b031681565b60008087876012888888886040516200069c9062000b61565b8080602001806020018860ff1681526020018060200180602001806020018060200187810387528e818151815260200191508051906020019080838360005b83811015620006f5578181015183820152602001620006db565b50505050905090810190601f168015620007235780820380516001836020036101000a031916815260200191505b5087810386528d5181528d516020918201918f019080838360005b83811015620007585781810151838201526020016200073e565b50505050905090810190601f168015620007865780820380516001836020036101000a031916815260200191505b5087810385528b5181528b516020918201918d019080838360005b83811015620007bb578181015183820152602001620007a1565b50505050905090810190601f168015620007e95780820380516001836020036101000a031916815260200191505b5087810384528a5181528a516020918201918c019080838360005b838110156200081e57818101518382015260200162000804565b50505050905090810190601f1680156200084c5780820380516001836020036101000a031916815260200191505b5087810383528951815289516020918201918b019080838360005b838110156200088157818101518382015260200162000867565b50505050905090810190601f168015620008af5780820380516001836020036101000a031916815260200191505b5087810382528851815288516020918201918a019080838360005b83811015620008e4578181015183820152602001620008ca565b50505050905090810190601f168015620009125780820380516001836020036101000a031916815260200191505b509d5050505050505050505050505050604051809103906000f0801580156200093f573d6000803e3d6000fd5b50905060006001549050816002600083815260200190815260200160002060006101000a8154816001600160a01b0302191690836001600160a01b03160217905550816003600083815260200190815260200160002060006101000a8154816001600160a01b0302191690836001600160a01b031602179055507f096a72bd793bbe0d192335b4a78ede008f6793d2bfd6f9442a7773792d912048818a8a604051808481526020018060200180602001838103835285818151815260200191508051906020019080838360005b8381101562000a2657818101518382015260200162000a0c565b50505050905090810190601f16801562000a545780820380516001836020036101000a031916815260200191505b50838103825284518152845160209182019186019080838360005b8381101562000a8957818101518382015260200162000a6f565b50505050905090810190601f16801562000ab75780820380516001836020036101000a031916815260200191505b509550505050505060405180910390a1600180548101905560408051600160e11b634c1d96ab02815233600482015290516001600160a01b0384169163983b2d5691602480830192600092919082900301818387803b15801562000b1a57600080fd5b505af115801562000b2f573d6000803e3d6000fd5b50929b9a5050505050505050505050565b60015481565b6002602052600090815260409020546001600160a01b031681565b614bd88062000b708339019056fe608060405264174876e8006009553480156200001a57600080fd5b5060405162004bd838038062004bd8833981018060405260e08110156200004057600080fd5b8101908080516401000000008111156200005957600080fd5b820160208101848111156200006d57600080fd5b81516401000000008111828201871017156200008857600080fd5b50509291906020018051640100000000811115620000a557600080fd5b82016020810184811115620000b957600080fd5b8151640100000000811182820187101715620000d457600080fd5b50506020820151604090920180519194929391640100000000811115620000fa57600080fd5b820160208101848111156200010e57600080fd5b81516401000000008111828201871017156200012957600080fd5b505092919060200180516401000000008111156200014657600080fd5b820160208101848111156200015a57600080fd5b81516401000000008111828201871017156200017557600080fd5b505092919060200180516401000000008111156200019257600080fd5b82016020810184811115620001a657600080fd5b8151640100000000811182820187101715620001c157600080fd5b50509291906020018051640100000000811115620001de57600080fd5b82016020810184811115620001f257600080fd5b81516401000000008111828201871017156200020d57600080fd5b5050895190935089925088915087906200022f906000906020860190620004d1565b50815162000245906001906020850190620004d1565b506002805460ff191660ff92909216919091179055506200026f90503362000306602090811b901c565b62000280336200035860201b60201c565b600880546001600160a81b03191661010032021790558351620002ab90600a906020870190620004d1565b508251620002c190600b906020860190620004d1565b508151620002d790600c906020850190620004d1565b508051620002ed90600d906020840190620004d1565b505060006011819055600f555062000576945050505050565b62000321816006620003aa60201b62002fd11790919060201c565b6040516001600160a01b038216907f6ae172837ea30b801fbfcdd4108aa1d5bf8ff775444fd70256b44e6bf3dfc3f690600090a250565b62000373816007620003aa60201b62002fd11790919060201c565b6040516001600160a01b038216907f6719d08c1888103bea251a4ed56406bd0c3e69723c8a1686e017e7bbe159b6f890600090a250565b620003bc82826200044e60201b60201c565b156200042957604080517f08c379a000000000000000000000000000000000000000000000000000000000815260206004820152601f60248201527f526f6c65733a206163636f756e7420616c72656164792068617320726f6c6500604482015290519081900360640190fd5b6001600160a01b0316600090815260209190915260409020805460ff19166001179055565b60006001600160a01b038216620004b1576040517f08c379a000000000000000000000000000000000000000000000000000000000815260040180806020018281038252602281526020018062004bb66022913960400191505060405180910390fd5b506001600160a01b03166000908152602091909152604090205460ff1690565b828054600181600116156101000203166002900490600052602060002090601f016020900481019282601f106200051457805160ff191683800117855562000544565b8280016001018555821562000544579182015b828111156200054457825182559160200191906001019062000527565b506200055292915062000556565b5090565b6200057391905b808211156200055257600081556001016200055d565b90565b61463080620005866000396000f3fe60806040523480156200001157600080fd5b5060043610620002805760003560e01c806370a082311162000159578063a9059cbb11620000c9578063c1162b4a1162000087578063c1162b4a1462000c6c578063c32378d41462000e32578063dd62ed3e1462000e52578063f0f3f2c81462000e83578063f516b4221462000ea35762000280565b8063a9059cbb1462000948578063aa271e1a1462000977578063aaa69d3f14620009a0578063b85f310c14620009c0578063be2a21b81462000a1c5762000280565b80638da5cb5b11620001175780638da5cb5b14620008d257806395d89b4114620008dc578063983b2d5614620008e657806398650275146200090f578063a457c2d714620009195762000280565b806370a0823114620006c45780637921011814620006ed57806382dc1ec4146200087357806383d5926f146200089c5780638456cb5914620008c85762000280565b80633950935111620001f5578063516f279e11620001b3578063516f279e14620004d65780635c975abb14620004e05780635f632d6914620004ea57806361e5dce314620006b05780636ef8d66d14620006ba5762000280565b806339509351146200043b5780633f4ba83a146200046a57806340c10f19146200047457806346fbf68e14620004a357806351605d8014620004cc5762000280565b806318160ddd116200024357806318160ddd14620003b257806323b872dd14620003ce578063313ce567146200040757806336fbad261462000427578063378dc3dc14620004315762000280565b806306fdde03146200028557806307904f071462000307578063095ea7b31462000329578063107046bd146200036c57806317de3a4114620003a8575b600080fd5b6200028f62000ead565b6040805160208082528351818301528351919283929083019185019080838360005b83811015620002cb578181015183820152602001620002b1565b50505050905090810190601f168015620002f95780820380516001836020036101000a031916815260200191505b509250505060405180910390f35b62000327600480360360208110156200031f57600080fd5b503562000f48565b005b62000358600480360360408110156200034157600080fd5b506001600160a01b03813516906020013562000fa4565b604080519115158252519081900360200190f35b6200038c600480360360208110156200038457600080fd5b50356200100c565b604080516001600160a01b039092168252519081900360200190f35b6200028f62001027565b620003bc620010b9565b60408051918252519081900360200190f35b6200035860048036036060811015620003e657600080fd5b506001600160a01b03813581169160208101359091169060400135620010bf565b6200041162001129565b6040805160ff9092168252519081900360200190f35b620003bc62001132565b620003bc62001138565b62000358600480360360408110156200045357600080fd5b506001600160a01b0381351690602001356200113e565b620003276200119f565b62000358600480360360408110156200048c57600080fd5b506001600160a01b03813516906020013562001284565b6200035860048036036020811015620004bb57600080fd5b50356001600160a01b0316620012e6565b6200028f62001301565b6200028f6200135f565b62000358620013bd565b6200038c600480360360a08110156200050257600080fd5b813591602081013591810190606081016040820135600160201b8111156200052957600080fd5b8201836020820111156200053c57600080fd5b803590602001918460018302840111600160201b831117156200055e57600080fd5b91908080601f0160208091040260200160405190810160405280939291908181526020018383808284376000920191909152509295949360208101935035915050600160201b811115620005b157600080fd5b820183602082011115620005c457600080fd5b803590602001918460018302840111600160201b83111715620005e657600080fd5b91908080601f0160208091040260200160405190810160405280939291908181526020018383808284376000920191909152509295949360208101935035915050600160201b8111156200063957600080fd5b8201836020820111156200064c57600080fd5b803590602001918460018302840111600160201b831117156200066e57600080fd5b91908080601f016020809104026020016040519081016040528093929190818152602001838380828437600092019190915250929550620013c6945050505050565b620003bc6200177d565b6200032762001783565b620003bc60048036036020811015620006dc57600080fd5b50356001600160a01b031662001790565b6200070d600480360360208110156200070557600080fd5b5035620017ab565b604051808060200180602001878152602001868152602001806020018515151515815260200184810384528a818151815260200191508051906020019080838360005b838110156200076a57818101518382015260200162000750565b50505050905090810190601f168015620007985780820380516001836020036101000a031916815260200191505b5084810383528951815289516020918201918b019080838360005b83811015620007cd578181015183820152602001620007b3565b50505050905090810190601f168015620007fb5780820380516001836020036101000a031916815260200191505b50848103825286518152865160209182019188019080838360005b838110156200083057818101518382015260200162000816565b50505050905090810190601f1680156200085e5780820380516001836020036101000a031916815260200191505b50995050505050505050505060405180910390f35b62000327600480360360208110156200088b57600080fd5b50356001600160a01b0316620019a9565b6200032760048036036060811015620008b457600080fd5b508035906020810135906040013562001a02565b6200032762001be1565b6200038c62001cc0565b6200028f62001cd4565b6200032760048036036020811015620008fe57600080fd5b50356001600160a01b031662001d37565b6200032762001d8d565b62000358600480360360408110156200093157600080fd5b506001600160a01b03813516906020013562001d98565b62000358600480360360408110156200096057600080fd5b506001600160a01b03813516906020013562001df9565b62000358600480360360208110156200098f57600080fd5b50356001600160a01b031662001e08565b6200032760048036036020811015620009b857600080fd5b503562001e1d565b620009ca62001e78565b60408051602080825283518183015283519192839290830191858101910280838360005b8381101562000a08578181015183820152602001620009ee565b505050509050019250505060405180910390f35b62000a2662001f0f565b6040518080602001896001600160a01b03166001600160a01b031681526020018060200180602001806020018060200188815260200187815260200186810386528e818151815260200191508051906020019080838360005b8381101562000a9957818101518382015260200162000a7f565b50505050905090810190601f16801562000ac75780820380516001836020036101000a031916815260200191505b5086810385528c5181528c516020918201918e019080838360005b8381101562000afc57818101518382015260200162000ae2565b50505050905090810190601f16801562000b2a5780820380516001836020036101000a031916815260200191505b5086810384528b5181528b516020918201918d019080838360005b8381101562000b5f57818101518382015260200162000b45565b50505050905090810190601f16801562000b8d5780820380516001836020036101000a031916815260200191505b5086810383528a5181528a516020918201918c019080838360005b8381101562000bc257818101518382015260200162000ba8565b50505050905090810190601f16801562000bf05780820380516001836020036101000a031916815260200191505b5086810382528951815289516020918201918b019080838360005b8381101562000c2557818101518382015260200162000c0b565b50505050905090810190601f16801562000c535780820380516001836020036101000a031916815260200191505b509d505050505050505050505050505060405180910390f35b62000327600480360360a081101562000c8457600080fd5b810190602081018135600160201b81111562000c9f57600080fd5b82018360208201111562000cb257600080fd5b803590602001918460018302840111600160201b8311171562000cd457600080fd5b91908080601f0160208091040260200160405190810160405280939291908181526020018383808284376000920191909152509295949360208101935035915050600160201b81111562000d2757600080fd5b82018360208201111562000d3a57600080fd5b803590602001918460018302840111600160201b8311171562000d5c57600080fd5b91908080601f0160208091040260200160405190810160405280939291908181526020018383808284376000920191909152509295843595602086013595919450925060608101915060400135600160201b81111562000dbb57600080fd5b82018360208201111562000dce57600080fd5b803590602001918460018302840111600160201b8311171562000df057600080fd5b91908080601f01602080910402602001604051908101604052809392919081815260200183838082843760009201919091525092955062002458945050505050565b6200070d6004803603602081101562000e4a57600080fd5b5035620025e0565b620003bc6004803603604081101562000e6a57600080fd5b506001600160a01b038135811691602001351662002840565b6200038c6004803603602081101562000e9b57600080fd5b50356200286b565b6200028f62002886565b60008054604080516020601f600260001961010060018816150201909516949094049384018190048102820181019092528281526060939092909183018282801562000f3d5780601f1062000f115761010080835404028352916020019162000f3d565b820191906000526020600020905b81548152906001019060200180831162000f1f57829003601f168201915b505050505090505b90565b60085461010090046001600160a01b0316331462000f6557600080fd5b60008181526010602052604090206005015460ff16151560011462000f8957600080fd5b6000908152601060205260409020600501805460ff19169055565b60085460009060ff161562000ff95760408051600160e51b62461bcd0281526020600482015260106024820152600160821b6f14185d5cd8589b194e881c185d5cd95902604482015290519081900360640190fd5b620010058383620028e4565b9392505050565b600e602052600090815260409020546001600160a01b031681565b600a805460408051602060026001851615610100026000190190941693909304601f81018490048402820184019092528181529291830182828015620010b15780601f106200108557610100808354040283529160200191620010b1565b820191906000526020600020905b8154815290600101906020018083116200109357829003601f168201915b505050505081565b60055490565b60085460009060ff1615620011145760408051600160e51b62461bcd0281526020600482015260106024820152600160821b6f14185d5cd8589b194e881c185d5cd95902604482015290519081900360640190fd5b62001121848484620028f3565b949350505050565b60025460ff1690565b600f5481565b60095481565b60085460009060ff1615620011935760408051600160e51b62461bcd0281526020600482015260106024820152600160821b6f14185d5cd8589b194e881c185d5cd95902604482015290519081900360640190fd5b62001005838362002950565b620011aa33620012e6565b620011ea57604051600160e51b62461bcd028152600401808060200182810382526030815260200180620044f76030913960400191505060405180910390fd5b60085460ff16620012455760408051600160e51b62461bcd02815260206004820152601460248201527f5061757361626c653a206e6f7420706175736564000000000000000000000000604482015290519081900360640190fd5b6008805460ff191690556040805133815290517f5db9ee0a495bf2e6ff9c91a7834c1ba4fdd244a5e8aa4e537bd38aeae4b073aa9181900360200190a1565b6000620012913362001e08565b620012d157604051600160e51b62461bcd028152600401808060200182810382526030815260200180620045496030913960400191505060405180910390fd5b620012dd83836200298f565b50600192915050565b6000620012fb60078363ffffffff62002a8916565b92915050565b600d805460408051602060026001851615610100026000190190941693909304601f81018490048402820184019092528181529291830182828015620010b15780601f106200108557610100808354040283529160200191620010b1565b600c805460408051602060026001851615610100026000190190941693909304601f81018490048402820184019092528181529291830182828015620010b15780601f106200108557610100808354040283529160200191620010b1565b60085460ff1690565b600080306001600160a01b03166370a08231306001600160a01b0316638da5cb5b6040518163ffffffff1660e01b815260040160206040518083038186803b1580156200141257600080fd5b505afa15801562001427573d6000803e3d6000fd5b505050506040513d60208110156200143e57600080fd5b50516040805163ffffffff841660e01b81526001600160a01b039092166004830152516024808301926020929190829003018186803b1580156200148157600080fd5b505afa15801562001496573d6000803e3d6000fd5b505050506040513d6020811015620014ad57600080fd5b50516040519091506000908890339030908a908a908a908a90620014d19062003058565b80888152602001876001600160a01b03166001600160a01b03168152602001866001600160a01b03166001600160a01b03168152602001858152602001806020018060200180602001848103845287818151815260200191508051906020019080838360005b838110156200155157818101518382015260200162001537565b50505050905090810190601f1680156200157f5780820380516001836020036101000a031916815260200191505b50848103835286518152865160209182019188019080838360005b83811015620015b45781810151838201526020016200159a565b50505050905090810190601f168015620015e25780820380516001836020036101000a031916815260200191505b50848103825285518152855160209182019187019080838360005b8381101562001617578181015183820152602001620015fd565b50505050905090810190601f168015620016455780820380516001836020036101000a031916815260200191505b509a5050505050505050505050604051809103906000f0801580156200166f573d6000803e3d6000fd5b50600f80546000818152600e6020908152604080832080546001600160a01b0319166001600160a01b0388811691821790925586546001019096556008548251808501979097526101009004169085018190526060850188905260808086528c51908601528b51959650869593947f6ca8a353551ce90d4eced0f252b7c7d0fc2925eae61db38dc59a0c0a014dab2a948d9488948b9392839260a0840192890191908190849084905b838110156200173257818101518382015260200162001718565b50505050905090810190601f168015620017605780820380516001836020036101000a031916815260200191505b509550505050505060405180910390a15098975050505050505050565b60115481565b6200178e3362002af5565b565b6001600160a01b031660009081526003602052604090205490565b60106020908152600091825260409182902080548351601f60026000196101006001861615020190931692909204918201849004840281018401909452808452909291839190830182828015620018465780601f106200181a5761010080835404028352916020019162001846565b820191906000526020600020905b8154815290600101906020018083116200182857829003601f168201915b505050505090806001018054600181600116156101000203166002900480601f016020809104026020016040519081016040528092919081815260200182805460018160011615610100020316600290048015620018e85780601f10620018bc57610100808354040283529160200191620018e8565b820191906000526020600020905b815481529060010190602001808311620018ca57829003601f168201915b505050505090806002015490806003015490806004018054600181600116156101000203166002900480601f016020809104026020016040519081016040528092919081815260200182805460018160011615610100020316600290048015620019965780601f106200196a5761010080835404028352916020019162001996565b820191906000526020600020905b8154815290600101906020018083116200197857829003601f168201915b5050506005909301549192505060ff1686565b620019b433620012e6565b620019f457604051600160e51b62461bcd028152600401808060200182810382526030815260200180620044f76030913960400191505060405180910390fd5b620019ff8162002b3f565b50565b6000838152601060205260409020600281015483111562001a2257600080fd5b600581015460ff16151560011462001a3957600080fd5b60408051600160e01b6370a08231028152336004820152905160009130916370a0823191602480820192602092909190829003018186803b15801562001a7e57600080fd5b505afa15801562001a93573d6000803e3d6000fd5b505050506040513d602081101562001aaa57600080fd5b5051905082811062001bda57306001600160a01b031663a9059cbb306001600160a01b0316638da5cb5b6040518163ffffffff1660e01b815260040160206040518083038186803b15801562001aff57600080fd5b505afa15801562001b14573d6000803e3d6000fd5b505050506040513d602081101562001b2b57600080fd5b50516040805163ffffffff841660e01b81526001600160a01b039092166004830152602482018790525160448083019260209291908290030181600087803b15801562001b7757600080fd5b505af115801562001b8c573d6000803e3d6000fd5b505050506040513d602081101562001ba357600080fd5b5050600282018054859003815533600090815260068401602052604090208054860190555462001bda5760058201805460ff191690555b5050505050565b62001bec33620012e6565b62001c2c57604051600160e51b62461bcd028152600401808060200182810382526030815260200180620044f76030913960400191505060405180910390fd5b60085460ff161562001c7e5760408051600160e51b62461bcd0281526020600482015260106024820152600160821b6f14185d5cd8589b194e881c185d5cd95902604482015290519081900360640190fd5b6008805460ff191660011790556040805133815290517f62e78cea01bee320cd4e420270b5ea74000d11b0c9f74754ebdbfc544b05a2589181900360200190a1565b60085461010090046001600160a01b031681565b60018054604080516020601f6002600019610100878916150201909516949094049384018190048102820181019092528281526060939092909183018282801562000f3d5780601f1062000f115761010080835404028352916020019162000f3d565b62001d423362001e08565b62001d8257604051600160e51b62461bcd028152600401808060200182810382526030815260200180620045496030913960400191505060405180910390fd5b620019ff8162002b89565b6200178e3362002bd3565b60085460009060ff161562001ded5760408051600160e51b62461bcd0281526020600482015260106024820152600160821b6f14185d5cd8589b194e881c185d5cd95902604482015290519081900360640190fd5b62001005838362002c1d565b6000620012dd32848462002c5c565b6000620012fb60068363ffffffff62002a8916565b60085461010090046001600160a01b0316331462001e3a57600080fd5b60008181526010602052604090206005015460ff161562001e5a57600080fd5b6000908152601060205260409020600501805460ff19166001179055565b60606000600f54905060608160405190808252806020026020018201604052801562001eae578160200160208202803883390190505b50905060005b8281101562001f08576000818152600e602052604090205482516001600160a01b039091169083908390811062001ee757fe5b6001600160a01b039092166020928302919091019091015260010162001eb4565b5091505090565b60606000606080606080600080306001600160a01b0316638da5cb5b6040518163ffffffff1660e01b815260040160206040518083038186803b15801562001f5657600080fd5b505afa15801562001f6b573d6000803e3d6000fd5b505050506040513d602081101562001f8257600080fd5b505160408051600160e01b6317de3a41028152905191985030916317de3a4191600480820192600092909190829003018186803b15801562001fc357600080fd5b505afa15801562001fd8573d6000803e3d6000fd5b505050506040513d6000823e601f3d908101601f1916820160405260208110156200200257600080fd5b810190808051600160201b8111156200201a57600080fd5b820160208101848111156200202e57600080fd5b8151600160201b8111828201871017156200204857600080fd5b50509291905050509550306001600160a01b031663f516b4226040518163ffffffff1660e01b815260040160006040518083038186803b1580156200208c57600080fd5b505afa158015620020a1573d6000803e3d6000fd5b505050506040513d6000823e601f3d908101601f191682016040526020811015620020cb57600080fd5b810190808051600160201b811115620020e357600080fd5b82016020810184811115620020f757600080fd5b8151600160201b8111828201871017156200211157600080fd5b50509291905050509450306001600160a01b031663516f279e6040518163ffffffff1660e01b815260040160006040518083038186803b1580156200215557600080fd5b505afa1580156200216a573d6000803e3d6000fd5b505050506040513d6000823e601f3d908101601f1916820160405260208110156200219457600080fd5b810190808051600160201b811115620021ac57600080fd5b82016020810184811115620021c057600080fd5b8151600160201b811182820187101715620021da57600080fd5b50509291905050509350306001600160a01b03166351605d806040518163ffffffff1660e01b815260040160006040518083038186803b1580156200221e57600080fd5b505afa15801562002233573d6000803e3d6000fd5b505050506040513d6000823e601f3d908101601f1916820160405260208110156200225d57600080fd5b810190808051600160201b8111156200227557600080fd5b820160208101848111156200228957600080fd5b8151600160201b811182820187101715620022a357600080fd5b50509291905050509250306001600160a01b03166336fbad266040518163ffffffff1660e01b815260040160206040518083038186803b158015620022e757600080fd5b505afa158015620022fc573d6000803e3d6000fd5b505050506040513d60208110156200231357600080fd5b505160408051600160e01b6361e5dce3028152905191935030916361e5dce391600480820192602092909190829003018186803b1580156200235457600080fd5b505afa15801562002369573d6000803e3d6000fd5b505050506040513d60208110156200238057600080fd5b505160408051600160e01b6306fdde03028152905191925030916306fdde0391600480820192600092909190829003018186803b158015620023c157600080fd5b505afa158015620023d6573d6000803e3d6000fd5b505050506040513d6000823e601f3d908101601f1916820160405260208110156200240057600080fd5b810190808051600160201b8111156200241857600080fd5b820160208101848111156200242c57600080fd5b8151600160201b8111828201871017156200244657600080fd5b50909b50505050509091929394959697565b6200246262003066565b506040805160c08101825286815260208082018790528183018690526060820185905260808201849052600160a083015260115460008181526010835293909320825180519394938593620024bc9284929101906200309e565b506020828101518051620024d792600185019201906200309e565b50604082015160028201556060820151600382015560808201518051620025099160048401916020909101906200309e565b5060a091909101516005909101805460ff1916911515919091179055601180546001019055815160408051838152602080820183815284519383019390935283517fdc7b12f3a3e657a393c15b8829b0691514c35869915f01e723dbb8bcec35c65a9486949093929091606084019185019080838360005b838110156200259b57818101518382015260200162002581565b50505050905090810190601f168015620025c95780820380516001836020036101000a031916815260200191505b50935050505060405180910390a150505050505050565b60608060008060606000620025f462003066565b6000888152601060209081526040918290208251815460026001821615610100026000190190911604601f8101849004909302810160e090810190945260c08101838152909391928492849190840182828015620026965780601f106200266a5761010080835404028352916020019162002696565b820191906000526020600020905b8154815290600101906020018083116200267857829003601f168201915b50505050508152602001600182018054600181600116156101000203166002900480601f0160208091040260200160405190810160405280929190818152602001828054600181600116156101000203166002900480156200273c5780601f1062002710576101008083540402835291602001916200273c565b820191906000526020600020905b8154815290600101906020018083116200271e57829003601f168201915b505050505081526020016002820154815260200160038201548152602001600482018054600181600116156101000203166002900480601f016020809104026020016040519081016040528092919081815260200182805460018160011615610100020316600290048015620027f65780601f10620027ca57610100808354040283529160200191620027f6565b820191906000526020600020905b815481529060010190602001808311620027d857829003601f168201915b50505091835250506005919091015460ff16151560209182015281519082015160408301516060840151608085015160a090950151939d929c50909a509850919650945092505050565b6001600160a01b03918216600090815260046020908152604080832093909416825291909152205490565b6000908152600e60205260409020546001600160a01b031690565b600b805460408051602060026001851615610100026000190190941693909304601f81018490048402820184019092528181529291830182828015620010b15780601f106200108557610100808354040283529160200191620010b1565b6000620012dd33848462002dae565b60006200290284848462002c5c565b6001600160a01b0384166000908152600460209081526040808320338085529252909120546200294691869162002940908663ffffffff62002ea416565b62002dae565b5060019392505050565b3360008181526004602090815260408083206001600160a01b03871684529091528120549091620012dd91859062002940908663ffffffff62002f0516565b6001600160a01b038216620029ee5760408051600160e51b62461bcd02815260206004820152601f60248201527f45524332303a206d696e7420746f20746865207a65726f206164647265737300604482015290519081900360640190fd5b60055462002a03908263ffffffff62002f0516565b6005556001600160a01b03821660009081526003602052604090205462002a31908263ffffffff62002f0516565b6001600160a01b03831660008181526003602090815260408083209490945583518581529351929391927fddf252ad1be2c89b69c2b068fc378daa952ba7f163c4a11628f55a4df523b3ef9281900390910190a35050565b60006001600160a01b03821662002ad557604051600160e51b62461bcd0281526004018080602001828103825260228152602001806200459a6022913960400191505060405180910390fd5b506001600160a01b03166000908152602091909152604090205460ff1690565b62002b0860078263ffffffff62002f6316565b6040516001600160a01b038216907fcd265ebaf09df2871cc7bd4133404a235ba12eff2041bb89d9c714a2621c7c7e90600090a250565b62002b5260078263ffffffff62002fd116565b6040516001600160a01b038216907f6719d08c1888103bea251a4ed56406bd0c3e69723c8a1686e017e7bbe159b6f890600090a250565b62002b9c60068263ffffffff62002fd116565b6040516001600160a01b038216907f6ae172837ea30b801fbfcdd4108aa1d5bf8ff775444fd70256b44e6bf3dfc3f690600090a250565b62002be660068263ffffffff62002f6316565b6040516001600160a01b038216907fe94479a9f7e1952cc78f2d6baab678adc1b772d936c6583def489e524cb6669290600090a250565b3360008181526004602090815260408083206001600160a01b03871684529091528120549091620012dd91859062002940908663ffffffff62002ea416565b6001600160a01b03831662002ca657604051600160e51b62461bcd028152600401808060200182810382526025815260200180620045bc6025913960400191505060405180910390fd5b6001600160a01b03821662002cf057604051600160e51b62461bcd028152600401808060200182810382526023815260200180620044d46023913960400191505060405180910390fd5b6001600160a01b03831660009081526003602052604090205462002d1b908263ffffffff62002ea416565b6001600160a01b03808516600090815260036020526040808220939093559084168152205462002d52908263ffffffff62002f0516565b6001600160a01b0380841660008181526003602090815260409182902094909455805185815290519193928716927fddf252ad1be2c89b69c2b068fc378daa952ba7f163c4a11628f55a4df523b3ef92918290030190a3505050565b6001600160a01b03831662002df857604051600160e51b62461bcd028152600401808060200182810382526024815260200180620045e16024913960400191505060405180910390fd5b6001600160a01b03821662002e4257604051600160e51b62461bcd028152600401808060200182810382526022815260200180620045276022913960400191505060405180910390fd5b6001600160a01b03808416600081815260046020908152604080832094871680845294825291829020859055815185815291517f8c5be1e5ebec7d5bd14f71427d1e84f3dd0314c0f7b2291e5b200ac8c7c3b9259281900390910190a3505050565b60008282111562002eff5760408051600160e51b62461bcd02815260206004820152601e60248201527f536166654d6174683a207375627472616374696f6e206f766572666c6f770000604482015290519081900360640190fd5b50900390565b600082820183811015620010055760408051600160e51b62461bcd02815260206004820152601b60248201527f536166654d6174683a206164646974696f6e206f766572666c6f770000000000604482015290519081900360640190fd5b62002f6f828262002a89565b62002faf57604051600160e51b62461bcd028152600401808060200182810382526021815260200180620045796021913960400191505060405180910390fd5b6001600160a01b0316600090815260209190915260409020805460ff19169055565b62002fdd828262002a89565b15620030335760408051600160e51b62461bcd02815260206004820152601f60248201527f526f6c65733a206163636f756e7420616c72656164792068617320726f6c6500604482015290519081900360640190fd5b6001600160a01b0316600090815260209190915260409020805460ff19166001179055565b611393806200314183390190565b6040518060c0016040528060608152602001606081526020016000815260200160008152602001606081526020016000151581525090565b828054600181600116156101000203166002900490600052602060002090601f016020900481019282601f10620030e157805160ff191683800117855562003111565b8280016001018555821562003111579182015b8281111562003111578251825591602001919060010190620030f4565b506200311f92915062003123565b5090565b62000f4591905b808211156200311f57600081556001016200312a56fe60806040523480156200001157600080fd5b506040516200139338038062001393833981018060405260e08110156200003757600080fd5b8151602083015160408401516060850151608086018051949693959294919392830192916401000000008111156200006e57600080fd5b820160208101848111156200008257600080fd5b81516401000000008111828201871017156200009d57600080fd5b50509291906020018051640100000000811115620000ba57600080fd5b82016020810184811115620000ce57600080fd5b8151640100000000811182820187101715620000e957600080fd5b505092919060200180516401000000008111156200010657600080fd5b820160208101848111156200011a57600080fd5b81516401000000008111828201871017156200013557600080fd5b505060016000559250859150889050878782620001b357604080517f08c379a000000000000000000000000000000000000000000000000000000000815260206004820152601460248201527f43726f776473616c653a20726174652069732030000000000000000000000000604482015290519081900360640190fd5b6001600160a01b03821662000214576040517f08c379a00000000000000000000000000000000000000000000000000000000081526004018080602001828103825260258152602001806200136e6025913960400191505060405180910390fd5b6001600160a01b03811662000275576040517f08c379a00000000000000000000000000000000000000000000000000000000081526004018080602001828103825260248152602001806200134a6024913960400191505060405180910390fd5b600392909255600280546001600160a01b039283166001600160a01b03199182161790915560018054929093169116179055806200031457604080517f08c379a000000000000000000000000000000000000000000000000000000000815260206004820152601960248201527f43617070656443726f776473616c653a20636170206973203000000000000000604482015290519081900360640190fd5b600555600680546001600160a01b0319163317905582516200033e90600790602086019062000399565b5081516200035490600990602085019062000399565b5080516200036a90600890602084019062000399565b5050600a80546001600160a01b0319166001600160a01b039590951694909417909355506200043e9350505050565b828054600181600116156101000203166002900490600052602060002090601f016020900481019282601f10620003dc57805160ff19168380011785556200040c565b828001600101855582156200040c579182015b828111156200040c578251825591602001919060010190620003ef565b506200041a9291506200041e565b5090565b6200043b91905b808211156200041a576000815560010162000425565b90565b610efc806200044e6000396000f3fe6080604052600436106100c25760003560e01c806351605d801161007f5780638c3006c7116100595780638c3006c7146102415780638da5cb5b146103ec578063ec8ac4d814610401578063fc0c546a14610427576100c2565b806351605d8014610202578063521eb273146102175780637284e4161461022c576100c2565b806306fdde03146100cd5780632c4e722e14610157578063355274ea1461017e5780634042b66f1461019357806343bc1612146101a85780634f935945146101d9575b6100cb3361043c565b005b3480156100d957600080fd5b506100e2610543565b6040805160208082528351818301528351919283929083019185019080838360005b8381101561011c578181015183820152602001610104565b50505050905090810190601f1680156101495780820380516001836020036101000a031916815260200191505b509250505060405180910390f35b34801561016357600080fd5b5061016c6105d1565b60408051918252519081900360200190f35b34801561018a57600080fd5b5061016c6105d7565b34801561019f57600080fd5b5061016c6105dd565b3480156101b457600080fd5b506101bd6105e3565b604080516001600160a01b039092168252519081900360200190f35b3480156101e557600080fd5b506101ee6105f2565b604080519115158252519081900360200190f35b34801561020e57600080fd5b506100e2610606565b34801561022357600080fd5b506101bd610661565b34801561023857600080fd5b506100e2610670565b34801561024d57600080fd5b506102566106cb565b604051808a6001600160a01b03166001600160a01b03168152602001806020018060200180602001898152602001886001600160a01b03166001600160a01b031681526020018781526020018681526020018515151515815260200184810384528c818151815260200191508051906020019080838360005b838110156102e75781810151838201526020016102cf565b50505050905090810190601f1680156103145780820380516001836020036101000a031916815260200191505b5084810383528b5181528b516020918201918d019080838360005b8381101561034757818101518382015260200161032f565b50505050905090810190601f1680156103745780820380516001836020036101000a031916815260200191505b5084810382528a5181528a516020918201918c019080838360005b838110156103a757818101518382015260200161038f565b50505050905090810190601f1680156103d45780820380516001836020036101000a031916815260200191505b509c5050505050505050505050505060405180910390f35b3480156103f857600080fd5b506101bd610bad565b6100cb6004803603602081101561041757600080fd5b50356001600160a01b031661043c565b34801561043357600080fd5b506101bd610bbc565b6000805460010190819055346104528382610bcb565b600061045d82610c46565b600454909150610473908363ffffffff610c6316565b6004556104808482610cc7565b604080518381526020810183905281516001600160a01b0387169233927f6faf93231a456e552dbc9961f58d9713ee4f2e69d15f1975b050ef0911053a7b929081900390910190a36104d2848361053f565b6104da610d50565b6104e4848361053f565b5050600054811461053f5760408051600160e51b62461bcd02815260206004820152601f60248201527f5265656e7472616e637947756172643a207265656e7472616e742063616c6c00604482015290519081900360640190fd5b5050565b6007805460408051602060026001851615610100026000190190941693909304601f810184900484028201840190925281815292918301828280156105c95780601f1061059e576101008083540402835291602001916105c9565b820191906000526020600020905b8154815290600101906020018083116105ac57829003601f168201915b505050505081565b60035490565b60055490565b60045490565b600a546001600160a01b031681565b60006005546105ff6105dd565b1015905090565b6008805460408051602060026001851615610100026000190190941693909304601f810184900484028201840190925281815292918301828280156105c95780601f1061059e576101008083540402835291602001916105c9565b6002546001600160a01b031690565b6009805460408051602060026001851615610100026000190190941693909304601f810184900484028201840190925281815292918301828280156105c95780601f1061059e576101008083540402835291602001916105c9565b600060608060606000806000806000306001600160a01b0316638da5cb5b6040518163ffffffff1660e01b815260040160206040518083038186803b15801561071357600080fd5b505afa158015610727573d6000803e3d6000fd5b505050506040513d602081101561073d57600080fd5b505160408051600160e01b6306fdde030281529051919a5030916306fdde0391600480820192600092909190829003018186803b15801561077d57600080fd5b505afa158015610791573d6000803e3d6000fd5b505050506040513d6000823e601f3d908101601f1916820160405260208110156107ba57600080fd5b8101908080516401000000008111156107d257600080fd5b820160208101848111156107e557600080fd5b81516401000000008111828201871017156107ff57600080fd5b50509291905050509750306001600160a01b03166351605d806040518163ffffffff1660e01b815260040160006040518083038186803b15801561084257600080fd5b505afa158015610856573d6000803e3d6000fd5b505050506040513d6000823e601f3d908101601f19168201604052602081101561087f57600080fd5b81019080805164010000000081111561089757600080fd5b820160208101848111156108aa57600080fd5b81516401000000008111828201871017156108c457600080fd5b50509291905050509650306001600160a01b0316637284e4166040518163ffffffff1660e01b815260040160006040518083038186803b15801561090757600080fd5b505afa15801561091b573d6000803e3d6000fd5b505050506040513d6000823e601f3d908101601f19168201604052602081101561094457600080fd5b81019080805164010000000081111561095c57600080fd5b8201602081018481111561096f57600080fd5b815164010000000081118282018710171561098957600080fd5b50509291905050509550306001600160a01b0316632c4e722e6040518163ffffffff1660e01b815260040160206040518083038186803b1580156109cc57600080fd5b505afa1580156109e0573d6000803e3d6000fd5b505050506040513d60208110156109f657600080fd5b505160408051600160e01b63521eb2730281529051919650309163521eb27391600480820192602092909190829003018186803b158015610a3657600080fd5b505afa158015610a4a573d6000803e3d6000fd5b505050506040513d6020811015610a6057600080fd5b505160408051600160e11b631aa93a750281529051919550309163355274ea91600480820192602092909190829003018186803b158015610aa057600080fd5b505afa158015610ab4573d6000803e3d6000fd5b505050506040513d6020811015610aca57600080fd5b505160408051600160e01b634042b66f02815290519194503091634042b66f91600480820192602092909190829003018186803b158015610b0a57600080fd5b505afa158015610b1e573d6000803e3d6000fd5b505050506040513d6020811015610b3457600080fd5b505160408051600160e01b634f93594502815290519193503091634f93594591600480820192602092909190829003018186803b158015610b7457600080fd5b505afa158015610b88573d6000803e3d6000fd5b505050506040513d6020811015610b9e57600080fd5b50519050909192939495969798565b6006546001600160a01b031681565b6001546001600160a01b031690565b610bd58282610d8c565b600554610bf082610be46105dd565b9063ffffffff610c6316565b111561053f5760408051600160e51b62461bcd02815260206004820152601d60248201527f43617070656443726f776473616c653a20636170206578636565646564000000604482015290519081900360640190fd5b6000610c5d60035483610e2990919063ffffffff16565b92915050565b600082820183811015610cc05760408051600160e51b62461bcd02815260206004820152601b60248201527f536166654d6174683a206164646974696f6e206f766572666c6f770000000000604482015290519081900360640190fd5b9392505050565b600a5460408051600160e01b6340c10f190281526001600160a01b03858116600483015260248201859052915191909216916340c10f199160448083019260209291908290030181600087803b158015610d2057600080fd5b505af1158015610d34573d6000803e3d6000fd5b505050506040513d6020811015610d4a57600080fd5b50505050565b6002546040516001600160a01b03909116903480156108fc02916000818181858888f19350505050158015610d89573d6000803e3d6000fd5b50565b6001600160a01b038216610dd457604051600160e51b62461bcd02815260040180806020018281038252602a815260200180610ea7602a913960400191505060405180910390fd5b8061053f5760408051600160e51b62461bcd02815260206004820152601960248201527f43726f776473616c653a20776569416d6f756e74206973203000000000000000604482015290519081900360640190fd5b600082610e3857506000610c5d565b82820282848281610e4557fe5b0414610cc057604051600160e51b62461bcd028152600401808060200182810382526021815260200180610e866021913960400191505060405180910390fdfe536166654d6174683a206d756c7469706c69636174696f6e206f766572666c6f7743726f776473616c653a2062656e656669636961727920697320746865207a65726f2061646472657373a165627a7a723058200303a41337d5c19bfd82061cfcf3c2fdb827d94264c6f4c0dfdfca60a08214f4002943726f776473616c653a20746f6b656e20697320746865207a65726f206164647265737343726f776473616c653a2077616c6c657420697320746865207a65726f206164647265737345524332303a207472616e7366657220746f20746865207a65726f2061646472657373506175736572526f6c653a2063616c6c657220646f6573206e6f742068617665207468652050617573657220726f6c6545524332303a20617070726f766520746f20746865207a65726f20616464726573734d696e746572526f6c653a2063616c6c657220646f6573206e6f74206861766520746865204d696e74657220726f6c65526f6c65733a206163636f756e7420646f6573206e6f74206861766520726f6c65526f6c65733a206163636f756e7420697320746865207a65726f206164647265737345524332303a207472616e736665722066726f6d20746865207a65726f206164647265737345524332303a20617070726f76652066726f6d20746865207a65726f2061646472657373a165627a7a72305820f4d97b33f11a07bfa499db911c00d89e4a2dda8e2c6704386da345c9dce57c790029526f6c65733a206163636f756e7420697320746865207a65726f2061646472657373a165627a7a72305820aaa523a9b23f2f9fc56e444a7492ea301b892831ebb979925e13792401815ffb0029",
  "source": "pragma solidity 0.5.8;\nimport './Artist.sol';\n\n/** @title Artist Factory */\ncontract ArtistFactory {\n    address public owner;\n    uint public artistCount;\n    mapping (uint => address) public artists;\n    mapping (uint => Artist) artistObjects;\n\n    event LogArtistAdded(uint newArtistId, string name, string symbol);\n\n    constructor()\n    public {\n        owner = msg.sender;\n        artistCount = 0;\n    }\n\n   /** @dev Creates an Artist instance and adds to artist mapping. \n      * @param _name of artist.\n      * @param _symbol of artist Token.\n      * @param _genre of artist.\n      * @param _bio of artist.\n      * @param _location of artist.\n      * @param _url image hash of artist image.\n      * @return newArtistId ID of newly created artist.\n      */\n    function addArtist(string memory _name, string memory _symbol, string memory _genre, string memory _bio, string memory _location, string memory _url) \n    public  \n    returns(uint) {\n        Artist newArtist = new Artist(_name, _symbol, 18, _genre, _bio, _location, _url);\n        uint newArtistId = artistCount;\n        artists[newArtistId] = address(newArtist);\n        artistObjects[newArtistId] = newArtist;\n        emit LogArtistAdded(newArtistId, _name, _symbol);\n        artistCount++;\n\n        newArtist.addMinter(msg.sender);\n        return newArtistId;\n    }\n\n    /** @dev returns address of artist by artist id\n      * @param artistId of artist to be retrieved\n      * @return address of Artist\n     **/\n    function getArtist(uint artistId) public view returns (address) {\n        return artists[artistId];\n    }\n\n    // function getArtistLinkInfo(uint artistId) public view returns (bytes[] memory ) {\n    //     bytes[] memory linkInfo = new bytes[](2);\n    //     Artist artist = artistObjects[artistId];\n    //     linkInfo[0] = bytes(artist.name());\n    //     // linkInfo[1] = artist.imageHash;\n    //     return linkInfo;\n    // }\n\n    function getArtistName(uint artistId) public view returns (string memory ) {\n        Artist artist = artistObjects[artistId];\n        string memory artistName = artist.name();\n        return artistName;\n    }\n\n\n    function getArtistImage(uint artistId) public view returns (string memory) {\n        Artist artist = artistObjects[artistId];\n        string memory imageHash = artist.imageHash();\n        return imageHash;\n    }\n}",
  "sourcePath": "/Users/g158726/Projects/other/latest-eighttrac/contracts/ArtistFactory.sol",
  "compiler": {
    "name": "solc",
    "version": "0.5.8+commit.23d335f2.Emscripten.clang"
  },
  "schemaVersion": "3.0.15",
  "updatedAt": "2019-10-30T04:43:54.818Z",
  "devdoc": {
    "methods": {
      "addArtist(string,string,string,string,string,string)": {
        "details": "Creates an Artist instance and adds to artist mapping. ",
        "params": {
          "_bio": "of artist.",
          "_genre": "of artist.",
          "_location": "of artist.",
          "_name": "of artist.",
          "_symbol": "of artist Token.",
          "_url": "image hash of artist image."
        },
        "return": "newArtistId ID of newly created artist."
      },
      "getArtist(uint256)": {
        "details": "returns address of artist by artist id",
        "params": {
          "artistId": "of artist to be retrieved"
        },
        "return": "address of Artist*"
      }
    },
    "title": "Artist Factory "
  },
  "userdoc": {
    "methods": {}
  }
}