{
  "contractName": "Project",
  "abi": [
    {
      "constant": true,
      "inputs": [],
      "name": "name",
      "outputs": [
        {
          "name": "",
          "type": "string"
        }
      ],
      "payable": false,
      "stateMutability": "view",
      "type": "function"
    },
    {
      "constant": true,
      "inputs": [],
      "name": "rate",
      "outputs": [
        {
          "name": "",
          "type": "uint256"
        }
      ],
      "payable": false,
      "stateMutability": "view",
      "type": "function"
    },
    {
      "constant": true,
      "inputs": [],
      "name": "cap",
      "outputs": [
        {
          "name": "",
          "type": "uint256"
        }
      ],
      "payable": false,
      "stateMutability": "view",
      "type": "function"
    },
    {
      "constant": true,
      "inputs": [],
      "name": "weiRaised",
      "outputs": [
        {
          "name": "",
          "type": "uint256"
        }
      ],
      "payable": false,
      "stateMutability": "view",
      "type": "function"
    },
    {
      "constant": true,
      "inputs": [],
      "name": "artist",
      "outputs": [
        {
          "name": "",
          "type": "address"
        }
      ],
      "payable": false,
      "stateMutability": "view",
      "type": "function"
    },
    {
      "constant": true,
      "inputs": [],
      "name": "capReached",
      "outputs": [
        {
          "name": "",
          "type": "bool"
        }
      ],
      "payable": false,
      "stateMutability": "view",
      "type": "function"
    },
    {
      "constant": true,
      "inputs": [],
      "name": "imageHash",
      "outputs": [
        {
          "name": "",
          "type": "string"
        }
      ],
      "payable": false,
      "stateMutability": "view",
      "type": "function"
    },
    {
      "constant": true,
      "inputs": [],
      "name": "wallet",
      "outputs": [
        {
          "name": "",
          "type": "address"
        }
      ],
      "payable": false,
      "stateMutability": "view",
      "type": "function"
    },
    {
      "constant": true,
      "inputs": [],
      "name": "description",
      "outputs": [
        {
          "name": "",
          "type": "string"
        }
      ],
      "payable": false,
      "stateMutability": "view",
      "type": "function"
    },
    {
      "constant": true,
      "inputs": [],
      "name": "owner",
      "outputs": [
        {
          "name": "",
          "type": "address"
        }
      ],
      "payable": false,
      "stateMutability": "view",
      "type": "function"
    },
    {
      "constant": false,
      "inputs": [
        {
          "name": "beneficiary",
          "type": "address"
        }
      ],
      "name": "buyTokens",
      "outputs": [],
      "payable": true,
      "stateMutability": "payable",
      "type": "function"
    },
    {
      "constant": true,
      "inputs": [],
      "name": "token",
      "outputs": [
        {
          "name": "",
          "type": "address"
        }
      ],
      "payable": false,
      "stateMutability": "view",
      "type": "function"
    },
    {
      "inputs": [
        {
          "name": "_rate",
          "type": "uint256"
        },
        {
          "name": "_wallet",
          "type": "address"
        },
        {
          "name": "_artist",
          "type": "address"
        },
        {
          "name": "_cap",
          "type": "uint256"
        },
        {
          "name": "_name",
          "type": "string"
        },
        {
          "name": "_description",
          "type": "string"
        },
        {
          "name": "_imageHash",
          "type": "string"
        }
      ],
      "payable": false,
      "stateMutability": "nonpayable",
      "type": "constructor"
    },
    {
      "payable": true,
      "stateMutability": "payable",
      "type": "fallback"
    },
    {
      "anonymous": false,
      "inputs": [
        {
          "indexed": true,
          "name": "purchaser",
          "type": "address"
        },
        {
          "indexed": true,
          "name": "beneficiary",
          "type": "address"
        },
        {
          "indexed": false,
          "name": "value",
          "type": "uint256"
        },
        {
          "indexed": false,
          "name": "amount",
          "type": "uint256"
        }
      ],
      "name": "TokensPurchased",
      "type": "event"
    },
    {
      "constant": true,
      "inputs": [],
      "name": "fetchProject",
      "outputs": [
        {
          "name": "owner",
          "type": "address"
        },
        {
          "name": "name",
          "type": "string"
        },
        {
          "name": "imageHash",
          "type": "string"
        },
        {
          "name": "description",
          "type": "string"
        },
        {
          "name": "rate",
          "type": "uint256"
        },
        {
          "name": "ownerWallet",
          "type": "address"
        },
        {
          "name": "cap",
          "type": "uint256"
        },
        {
          "name": "weiRaised",
          "type": "uint256"
        },
        {
          "name": "capReached",
          "type": "bool"
        }
      ],
      "payable": false,
      "stateMutability": "view",
      "type": "function"
    }
  ],
  "bytecode": "0x60806040523480156200001157600080fd5b506040516200139338038062001393833981018060405260e08110156200003757600080fd5b8151602083015160408401516060850151608086018051949693959294919392830192916401000000008111156200006e57600080fd5b820160208101848111156200008257600080fd5b81516401000000008111828201871017156200009d57600080fd5b50509291906020018051640100000000811115620000ba57600080fd5b82016020810184811115620000ce57600080fd5b8151640100000000811182820187101715620000e957600080fd5b505092919060200180516401000000008111156200010657600080fd5b820160208101848111156200011a57600080fd5b81516401000000008111828201871017156200013557600080fd5b505060016000559250859150889050878782620001b357604080517f08c379a000000000000000000000000000000000000000000000000000000000815260206004820152601460248201527f43726f776473616c653a20726174652069732030000000000000000000000000604482015290519081900360640190fd5b6001600160a01b03821662000214576040517f08c379a00000000000000000000000000000000000000000000000000000000081526004018080602001828103825260258152602001806200136e6025913960400191505060405180910390fd5b6001600160a01b03811662000275576040517f08c379a00000000000000000000000000000000000000000000000000000000081526004018080602001828103825260248152602001806200134a6024913960400191505060405180910390fd5b600392909255600280546001600160a01b039283166001600160a01b03199182161790915560018054929093169116179055806200031457604080517f08c379a000000000000000000000000000000000000000000000000000000000815260206004820152601960248201527f43617070656443726f776473616c653a20636170206973203000000000000000604482015290519081900360640190fd5b600555600680546001600160a01b0319163317905582516200033e90600790602086019062000399565b5081516200035490600990602085019062000399565b5080516200036a90600890602084019062000399565b5050600a80546001600160a01b0319166001600160a01b039590951694909417909355506200043e9350505050565b828054600181600116156101000203166002900490600052602060002090601f016020900481019282601f10620003dc57805160ff19168380011785556200040c565b828001600101855582156200040c579182015b828111156200040c578251825591602001919060010190620003ef565b506200041a9291506200041e565b5090565b6200043b91905b808211156200041a576000815560010162000425565b90565b610efc806200044e6000396000f3fe6080604052600436106100c25760003560e01c806351605d801161007f5780638c3006c7116100595780638c3006c7146102415780638da5cb5b146103ec578063ec8ac4d814610401578063fc0c546a14610427576100c2565b806351605d8014610202578063521eb273146102175780637284e4161461022c576100c2565b806306fdde03146100cd5780632c4e722e14610157578063355274ea1461017e5780634042b66f1461019357806343bc1612146101a85780634f935945146101d9575b6100cb3361043c565b005b3480156100d957600080fd5b506100e2610543565b6040805160208082528351818301528351919283929083019185019080838360005b8381101561011c578181015183820152602001610104565b50505050905090810190601f1680156101495780820380516001836020036101000a031916815260200191505b509250505060405180910390f35b34801561016357600080fd5b5061016c6105d1565b60408051918252519081900360200190f35b34801561018a57600080fd5b5061016c6105d7565b34801561019f57600080fd5b5061016c6105dd565b3480156101b457600080fd5b506101bd6105e3565b604080516001600160a01b039092168252519081900360200190f35b3480156101e557600080fd5b506101ee6105f2565b604080519115158252519081900360200190f35b34801561020e57600080fd5b506100e2610606565b34801561022357600080fd5b506101bd610661565b34801561023857600080fd5b506100e2610670565b34801561024d57600080fd5b506102566106cb565b604051808a6001600160a01b03166001600160a01b03168152602001806020018060200180602001898152602001886001600160a01b03166001600160a01b031681526020018781526020018681526020018515151515815260200184810384528c818151815260200191508051906020019080838360005b838110156102e75781810151838201526020016102cf565b50505050905090810190601f1680156103145780820380516001836020036101000a031916815260200191505b5084810383528b5181528b516020918201918d019080838360005b8381101561034757818101518382015260200161032f565b50505050905090810190601f1680156103745780820380516001836020036101000a031916815260200191505b5084810382528a5181528a516020918201918c019080838360005b838110156103a757818101518382015260200161038f565b50505050905090810190601f1680156103d45780820380516001836020036101000a031916815260200191505b509c5050505050505050505050505060405180910390f35b3480156103f857600080fd5b506101bd610bad565b6100cb6004803603602081101561041757600080fd5b50356001600160a01b031661043c565b34801561043357600080fd5b506101bd610bbc565b6000805460010190819055346104528382610bcb565b600061045d82610c46565b600454909150610473908363ffffffff610c6316565b6004556104808482610cc7565b604080518381526020810183905281516001600160a01b0387169233927f6faf93231a456e552dbc9961f58d9713ee4f2e69d15f1975b050ef0911053a7b929081900390910190a36104d2848361053f565b6104da610d50565b6104e4848361053f565b5050600054811461053f5760408051600160e51b62461bcd02815260206004820152601f60248201527f5265656e7472616e637947756172643a207265656e7472616e742063616c6c00604482015290519081900360640190fd5b5050565b6007805460408051602060026001851615610100026000190190941693909304601f810184900484028201840190925281815292918301828280156105c95780601f1061059e576101008083540402835291602001916105c9565b820191906000526020600020905b8154815290600101906020018083116105ac57829003601f168201915b505050505081565b60035490565b60055490565b60045490565b600a546001600160a01b031681565b60006005546105ff6105dd565b1015905090565b6008805460408051602060026001851615610100026000190190941693909304601f810184900484028201840190925281815292918301828280156105c95780601f1061059e576101008083540402835291602001916105c9565b6002546001600160a01b031690565b6009805460408051602060026001851615610100026000190190941693909304601f810184900484028201840190925281815292918301828280156105c95780601f1061059e576101008083540402835291602001916105c9565b600060608060606000806000806000306001600160a01b0316638da5cb5b6040518163ffffffff1660e01b815260040160206040518083038186803b15801561071357600080fd5b505afa158015610727573d6000803e3d6000fd5b505050506040513d602081101561073d57600080fd5b505160408051600160e01b6306fdde030281529051919a5030916306fdde0391600480820192600092909190829003018186803b15801561077d57600080fd5b505afa158015610791573d6000803e3d6000fd5b505050506040513d6000823e601f3d908101601f1916820160405260208110156107ba57600080fd5b8101908080516401000000008111156107d257600080fd5b820160208101848111156107e557600080fd5b81516401000000008111828201871017156107ff57600080fd5b50509291905050509750306001600160a01b03166351605d806040518163ffffffff1660e01b815260040160006040518083038186803b15801561084257600080fd5b505afa158015610856573d6000803e3d6000fd5b505050506040513d6000823e601f3d908101601f19168201604052602081101561087f57600080fd5b81019080805164010000000081111561089757600080fd5b820160208101848111156108aa57600080fd5b81516401000000008111828201871017156108c457600080fd5b50509291905050509650306001600160a01b0316637284e4166040518163ffffffff1660e01b815260040160006040518083038186803b15801561090757600080fd5b505afa15801561091b573d6000803e3d6000fd5b505050506040513d6000823e601f3d908101601f19168201604052602081101561094457600080fd5b81019080805164010000000081111561095c57600080fd5b8201602081018481111561096f57600080fd5b815164010000000081118282018710171561098957600080fd5b50509291905050509550306001600160a01b0316632c4e722e6040518163ffffffff1660e01b815260040160206040518083038186803b1580156109cc57600080fd5b505afa1580156109e0573d6000803e3d6000fd5b505050506040513d60208110156109f657600080fd5b505160408051600160e01b63521eb2730281529051919650309163521eb27391600480820192602092909190829003018186803b158015610a3657600080fd5b505afa158015610a4a573d6000803e3d6000fd5b505050506040513d6020811015610a6057600080fd5b505160408051600160e11b631aa93a750281529051919550309163355274ea91600480820192602092909190829003018186803b158015610aa057600080fd5b505afa158015610ab4573d6000803e3d6000fd5b505050506040513d6020811015610aca57600080fd5b505160408051600160e01b634042b66f02815290519194503091634042b66f91600480820192602092909190829003018186803b158015610b0a57600080fd5b505afa158015610b1e573d6000803e3d6000fd5b505050506040513d6020811015610b3457600080fd5b505160408051600160e01b634f93594502815290519193503091634f93594591600480820192602092909190829003018186803b158015610b7457600080fd5b505afa158015610b88573d6000803e3d6000fd5b505050506040513d6020811015610b9e57600080fd5b50519050909192939495969798565b6006546001600160a01b031681565b6001546001600160a01b031690565b610bd58282610d8c565b600554610bf082610be46105dd565b9063ffffffff610c6316565b111561053f5760408051600160e51b62461bcd02815260206004820152601d60248201527f43617070656443726f776473616c653a20636170206578636565646564000000604482015290519081900360640190fd5b6000610c5d60035483610e2990919063ffffffff16565b92915050565b600082820183811015610cc05760408051600160e51b62461bcd02815260206004820152601b60248201527f536166654d6174683a206164646974696f6e206f766572666c6f770000000000604482015290519081900360640190fd5b9392505050565b600a5460408051600160e01b6340c10f190281526001600160a01b03858116600483015260248201859052915191909216916340c10f199160448083019260209291908290030181600087803b158015610d2057600080fd5b505af1158015610d34573d6000803e3d6000fd5b505050506040513d6020811015610d4a57600080fd5b50505050565b6002546040516001600160a01b03909116903480156108fc02916000818181858888f19350505050158015610d89573d6000803e3d6000fd5b50565b6001600160a01b038216610dd457604051600160e51b62461bcd02815260040180806020018281038252602a815260200180610ea7602a913960400191505060405180910390fd5b8061053f5760408051600160e51b62461bcd02815260206004820152601960248201527f43726f776473616c653a20776569416d6f756e74206973203000000000000000604482015290519081900360640190fd5b600082610e3857506000610c5d565b82820282848281610e4557fe5b0414610cc057604051600160e51b62461bcd028152600401808060200182810382526021815260200180610e866021913960400191505060405180910390fdfe536166654d6174683a206d756c7469706c69636174696f6e206f766572666c6f7743726f776473616c653a2062656e656669636961727920697320746865207a65726f2061646472657373a165627a7a723058200303a41337d5c19bfd82061cfcf3c2fdb827d94264c6f4c0dfdfca60a08214f4002943726f776473616c653a20746f6b656e20697320746865207a65726f206164647265737343726f776473616c653a2077616c6c657420697320746865207a65726f2061646472657373",
  "source": "pragma solidity 0.5.8;\n\nimport \"openzeppelin-solidity/contracts/crowdsale/Crowdsale.sol\";\nimport \"openzeppelin-solidity/contracts/crowdsale/validation/CappedCrowdsale.sol\";\nimport \"./Artist.sol\";\n\ncontract Project is Crowdsale, CappedCrowdsale {\n    address public owner;\n    string public name;\n    string public imageHash;\n    string public description;\n    Artist public artist;\n\n\n\n\n    /** @dev Project constructor\n      * @param _rate  How many token units a buyer gets per wei.\n                      The rate is the conversion between wei and the smallest and indivisible token unit.\n                      So, if you are using a rate of 1 with a ERC20Detailed token with 3 decimals called TOK\n                      1 wei will give you 1 unit, or 0.001 TOK.\n      * @param _wallet the address where funds are collected.\n      * @param _artist Artist (Token) to be dispersed when a user contributes to crowdfund\n      * @param _cap amount in wei that is crowdsale is trying to reach.\n      * @param _name name of Project.\n      * @param _description description of Project.\n      * @param _imageHash ipfsHash of Project image.\n     **/\n    constructor(uint256 _rate, address payable _wallet, Artist _artist, uint256 _cap, string memory _name, string memory _description, string memory _imageHash)\n    Crowdsale(_rate, _wallet, _artist)\n    CappedCrowdsale(_cap)\n    \n    public {\n        owner = msg.sender;\n        name = _name;\n        description = _description;\n        imageHash = _imageHash;\n        artist = _artist;\n    }\n\n    /** @dev returns project details \n      * @return owner of Project.\n      * @return name of Project.\n      * @return imageHash of Project.\n      * @return description of Project.\n      * @return rate of Project.\n      * @return ownerWallet of Project.\n      * @return cap of Project.\n      * @return weiRaised of Project.\n      * @return capReached of Project.\n      \n     **/\n    function fetchProject() public view \n    returns (address owner,string memory name, string memory imageHash,string memory description, uint256 rate, address ownerWallet, uint256 cap, uint256 weiRaised, bool capReached)\n    {\n        owner = this.owner();\n        name = this.name();\n        imageHash = this.imageHash();\n        description = this.description();\n        rate = this.rate();\n        ownerWallet = this.wallet();\n        cap = this.cap();\n        weiRaised = this.weiRaised();\n        capReached = this.capReached();\n\n        return ( owner, name, imageHash, description, rate, ownerWallet, cap, weiRaised, capReached);\n    }\n\n    /** @dev override _processPurchase function to allow minting of Artist Tokens at time of purchase\n      * @param beneficiary Address receiving the tokens\n      * @param tokenAmount Number of tokens to be purchased\n     **/\n    function _processPurchase(address beneficiary, uint256 tokenAmount) internal {\n        artist.mint(beneficiary, tokenAmount);\n    }\n}",
  "sourcePath": "/Users/g158726/Projects/other/latest-eighttrac/contracts/Project.sol",
  "compiler": {
    "name": "solc",
    "version": "0.5.8+commit.23d335f2.Emscripten.clang"
  },
  "schemaVersion": "3.0.15",
  "updatedAt": "2019-09-18T01:19:24.653Z",
  "devdoc": {
    "methods": {
      "buyTokens(address)": {
        "details": "low level token purchase ***DO NOT OVERRIDE*** This function has a non-reentrancy guard, so it shouldn't be called by another `nonReentrant` function.",
        "params": {
          "beneficiary": "Recipient of the token purchase"
        }
      },
      "cap()": {
        "return": "the cap of the crowdsale."
      },
      "capReached()": {
        "details": "Checks whether the cap has been reached.",
        "return": "Whether the cap was reached"
      },
      "constructor": {
        "details": "Project constructor",
        "params": {
          "_artist": "Artist (Token) to be dispersed when a user contributes to crowdfund",
          "_cap": "amount in wei that is crowdsale is trying to reach.",
          "_description": "description of Project.",
          "_imageHash": "ipfsHash of Project image.*",
          "_name": "name of Project.",
          "_rate": "How many token units a buyer gets per wei. The rate is the conversion between wei and the smallest and indivisible token unit. So, if you are using a rate of 1 with a ERC20Detailed token with 3 decimals called TOK 1 wei will give you 1 unit, or 0.001 TOK.",
          "_wallet": "the address where funds are collected."
        }
      },
      "fetchProject()": {
        "details": "returns project details ",
        "return": "owner of Project.name of Project.imageHash of Project.description of Project.rate of Project.ownerWallet of Project.cap of Project.weiRaised of Project.capReached of Project.*"
      },
      "rate()": {
        "return": "the number of token units a buyer gets per wei."
      },
      "token()": {
        "return": "the token being sold."
      },
      "wallet()": {
        "return": "the address where funds are collected."
      },
      "weiRaised()": {
        "return": "the amount of wei raised."
      }
    }
  },
  "userdoc": {
    "methods": {}
  }
}